{
  "contractName": "Tutoria",
  "abi": [
    {
      "constant": true,
      "inputs": [
        {
          "name": "",
          "type": "uint256"
        }
      ],
      "name": "tutoCanc",
      "outputs": [
        {
          "name": "materia",
          "type": "string"
        },
        {
          "name": "idProfesor",
          "type": "address"
        },
        {
          "name": "alumno",
          "type": "address"
        },
        {
          "name": "confirmado",
          "type": "uint256"
        },
        {
          "name": "cancelado",
          "type": "uint256"
        },
        {
          "name": "hash",
          "type": "bytes32"
        }
      ],
      "payable": false,
      "stateMutability": "view",
      "type": "function"
    },
    {
      "constant": true,
      "inputs": [
        {
          "name": "",
          "type": "uint256"
        }
      ],
      "name": "tuto",
      "outputs": [
        {
          "name": "materia",
          "type": "string"
        },
        {
          "name": "idProfesor",
          "type": "address"
        },
        {
          "name": "alumno",
          "type": "address"
        },
        {
          "name": "confirmado",
          "type": "uint256"
        },
        {
          "name": "cancelado",
          "type": "uint256"
        },
        {
          "name": "hash",
          "type": "bytes32"
        }
      ],
      "payable": false,
      "stateMutability": "view",
      "type": "function"
    },
    {
      "constant": true,
      "inputs": [
        {
          "name": "",
          "type": "uint256"
        }
      ],
      "name": "tutoConf",
      "outputs": [
        {
          "name": "materia",
          "type": "string"
        },
        {
          "name": "idProfesor",
          "type": "address"
        },
        {
          "name": "alumno",
          "type": "address"
        },
        {
          "name": "confirmado",
          "type": "uint256"
        },
        {
          "name": "cancelado",
          "type": "uint256"
        },
        {
          "name": "hash",
          "type": "bytes32"
        }
      ],
      "payable": false,
      "stateMutability": "view",
      "type": "function"
    },
    {
      "constant": false,
      "inputs": [
        {
          "name": "_materia",
          "type": "string"
        },
        {
          "name": "_idProfesor",
          "type": "address"
        }
      ],
      "name": "solicitar",
      "outputs": [
        {
          "name": "",
          "type": "bytes32"
        }
      ],
      "payable": false,
      "stateMutability": "nonpayable",
      "type": "function"
    },
    {
      "constant": true,
      "inputs": [
        {
          "name": "key",
          "type": "bytes32"
        }
      ],
      "name": "getMateria",
      "outputs": [
        {
          "name": "",
          "type": "string"
        }
      ],
      "payable": false,
      "stateMutability": "view",
      "type": "function"
    },
    {
      "constant": true,
      "inputs": [
        {
          "name": "key",
          "type": "bytes32"
        }
      ],
      "name": "getIdProfesor",
      "outputs": [
        {
          "name": "",
          "type": "address"
        }
      ],
      "payable": false,
      "stateMutability": "view",
      "type": "function"
    },
    {
      "constant": true,
      "inputs": [
        {
          "name": "key",
          "type": "bytes32"
        }
      ],
      "name": "getAlumno",
      "outputs": [
        {
          "name": "",
          "type": "address"
        }
      ],
      "payable": false,
      "stateMutability": "view",
      "type": "function"
    },
    {
      "constant": false,
      "inputs": [
        {
          "name": "key",
          "type": "bytes32"
        }
      ],
      "name": "confirmar",
      "outputs": [],
      "payable": false,
      "stateMutability": "nonpayable",
      "type": "function"
    },
    {
      "constant": false,
      "inputs": [
        {
          "name": "key",
          "type": "bytes32"
        }
      ],
      "name": "cancelar",
      "outputs": [],
      "payable": false,
      "stateMutability": "nonpayable",
      "type": "function"
    },
    {
      "constant": true,
      "inputs": [
        {
          "name": "key",
          "type": "bytes32"
        }
      ],
      "name": "estaConfirmado",
      "outputs": [
        {
          "name": "",
          "type": "uint256"
        }
      ],
      "payable": false,
      "stateMutability": "view",
      "type": "function"
    },
    {
      "constant": true,
      "inputs": [
        {
          "name": "key",
          "type": "bytes32"
        }
      ],
      "name": "estaCancelado",
      "outputs": [
        {
          "name": "",
          "type": "uint256"
        }
      ],
      "payable": false,
      "stateMutability": "view",
      "type": "function"
    }
  ],
  "bytecode": "0x608060405234801561001057600080fd5b5061148e806100206000396000f3006080604052600436106100af576000357c0100000000000000000000000000000000000000000000000000000000900463ffffffff168063108b876d146100b4578063235c2d53146100f95780635e036d901461016a57806363cb66401461019b578063653ebfba1461024557806381afb3741461036e5780638952299d14610497578063a3097997146104c8578063b64682d914610539578063c803836014610662578063cb137423146106a7575b600080fd5b3480156100c057600080fd5b506100e3600480360381019080803560001916906020019092919050505061074c565b6040518082815260200191505060405180910390f35b34801561010557600080fd5b506101286004803603810190808035600019169060200190929190505050610779565b604051808273ffffffffffffffffffffffffffffffffffffffff1673ffffffffffffffffffffffffffffffffffffffff16815260200191505060405180910390f35b34801561017657600080fd5b5061019960048036038101908080356000191690602001909291905050506107c6565b005b3480156101a757600080fd5b506101ca600480360381019080803560001916906020019092919050505061099c565b6040518080602001828103825283818151815260200191508051906020019080838360005b8381101561020a5780820151818401526020810190506101ef565b50505050905090810190601f1680156102375780820380516001836020036101000a031916815260200191505b509250505060405180910390f35b34801561025157600080fd5b5061027060048036038101908080359060200190929190505050610a62565b60405180806020018773ffffffffffffffffffffffffffffffffffffffff1673ffffffffffffffffffffffffffffffffffffffff1681526020018673ffffffffffffffffffffffffffffffffffffffff1673ffffffffffffffffffffffffffffffffffffffff1681526020018581526020018481526020018360001916600019168152602001828103825288818151815260200191508051906020019080838360005b8381101561032e578082015181840152602081019050610313565b50505050905090810190601f16801561035b5780820380516001836020036101000a031916815260200191505b5097505050505050505060405180910390f35b34801561037a57600080fd5b5061039960048036038101908080359060200190929190505050610b85565b60405180806020018773ffffffffffffffffffffffffffffffffffffffff1673ffffffffffffffffffffffffffffffffffffffff1681526020018673ffffffffffffffffffffffffffffffffffffffff1673ffffffffffffffffffffffffffffffffffffffff1681526020018581526020018481526020018360001916600019168152602001828103825288818151815260200191508051906020019080838360005b8381101561045757808201518184015260208101905061043c565b50505050905090810190601f1680156104845780820380516001836020036101000a031916815260200191505b5097505050505050505060405180910390f35b3480156104a357600080fd5b506104c66004803603810190808035600019169060200190929190505050610ca8565b005b3480156104d457600080fd5b506104f76004803603810190808035600019169060200190929190505050610e7e565b604051808273ffffffffffffffffffffffffffffffffffffffff1673ffffffffffffffffffffffffffffffffffffffff16815260200191505060405180910390f35b34801561054557600080fd5b5061056460048036038101908080359060200190929190505050610ecb565b60405180806020018773ffffffffffffffffffffffffffffffffffffffff1673ffffffffffffffffffffffffffffffffffffffff1681526020018673ffffffffffffffffffffffffffffffffffffffff1673ffffffffffffffffffffffffffffffffffffffff1681526020018581526020018481526020018360001916600019168152602001828103825288818151815260200191508051906020019080838360005b83811015610622578082015181840152602081019050610607565b50505050905090810190601f16801561064f5780820380516001836020036101000a031916815260200191505b5097505050505050505060405180910390f35b34801561066e57600080fd5b506106916004803603810190808035600019169060200190929190505050610fee565b6040518082815260200191505060405180910390f35b3480156106b357600080fd5b5061072e600480360381019080803590602001908201803590602001908080601f0160208091040260200160405190810160405280939291908181526020018383808284378201915050505050509192919290803573ffffffffffffffffffffffffffffffffffffffff16906020019092919050505061101b565b60405180826000191660001916815260200191505060405180910390f35b60008060036000846000191660001916815260200190815260200160002090508060030154915050919050565b60008060036000846000191660001916815260200190815260200160002090508060020160009054906101000a900473ffffffffffffffffffffffffffffffffffffffff16915050919050565b600060036000836000191660001916815260200190815260200160002090508060020160009054906101000a900473ffffffffffffffffffffffffffffffffffffffff1673ffffffffffffffffffffffffffffffffffffffff163373ffffffffffffffffffffffffffffffffffffffff1614151561084357600080fd5b6001816004018190555060028190806001815401808255809150509060018203906000526020600020906006020160009091929091909150600082018160000190805460018160011615610100020316600290046108a2929190611336565b506001820160009054906101000a900473ffffffffffffffffffffffffffffffffffffffff168160010160006101000a81548173ffffffffffffffffffffffffffffffffffffffff021916908373ffffffffffffffffffffffffffffffffffffffff1602179055506002820160009054906101000a900473ffffffffffffffffffffffffffffffffffffffff168160020160006101000a81548173ffffffffffffffffffffffffffffffffffffffff021916908373ffffffffffffffffffffffffffffffffffffffff1602179055506003820154816003015560048201548160040155600582015481600501906000191690555050505050565b606060006003600084600019166000191681526020019081526020016000209050806000018054600181600116156101000203166002900480601f016020809104026020016040519081016040528092919081815260200182805460018160011615610100020316600290048015610a555780601f10610a2a57610100808354040283529160200191610a55565b820191906000526020600020905b815481529060010190602001808311610a3857829003601f168201915b5050505050915050919050565b600281815481101515610a7157fe5b9060005260206000209060060201600091509050806000018054600181600116156101000203166002900480601f016020809104026020016040519081016040528092919081815260200182805460018160011615610100020316600290048015610b1d5780601f10610af257610100808354040283529160200191610b1d565b820191906000526020600020905b815481529060010190602001808311610b0057829003601f168201915b5050505050908060010160009054906101000a900473ffffffffffffffffffffffffffffffffffffffff16908060020160009054906101000a900473ffffffffffffffffffffffffffffffffffffffff16908060030154908060040154908060050154905086565b600081815481101515610b9457fe5b9060005260206000209060060201600091509050806000018054600181600116156101000203166002900480601f016020809104026020016040519081016040528092919081815260200182805460018160011615610100020316600290048015610c405780601f10610c1557610100808354040283529160200191610c40565b820191906000526020600020905b815481529060010190602001808311610c2357829003601f168201915b5050505050908060010160009054906101000a900473ffffffffffffffffffffffffffffffffffffffff16908060020160009054906101000a900473ffffffffffffffffffffffffffffffffffffffff16908060030154908060040154908060050154905086565b600060036000836000191660001916815260200190815260200160002090508060010160009054906101000a900473ffffffffffffffffffffffffffffffffffffffff1673ffffffffffffffffffffffffffffffffffffffff163373ffffffffffffffffffffffffffffffffffffffff16141515610d2557600080fd5b600181600301819055506001819080600181540180825580915050906001820390600052602060002090600602016000909192909190915060008201816000019080546001816001161561010002031660029004610d84929190611336565b506001820160009054906101000a900473ffffffffffffffffffffffffffffffffffffffff168160010160006101000a81548173ffffffffffffffffffffffffffffffffffffffff021916908373ffffffffffffffffffffffffffffffffffffffff1602179055506002820160009054906101000a900473ffffffffffffffffffffffffffffffffffffffff168160020160006101000a81548173ffffffffffffffffffffffffffffffffffffffff021916908373ffffffffffffffffffffffffffffffffffffffff1602179055506003820154816003015560048201548160040155600582015481600501906000191690555050505050565b60008060036000846000191660001916815260200190815260200160002090508060010160009054906101000a900473ffffffffffffffffffffffffffffffffffffffff16915050919050565b600181815481101515610eda57fe5b9060005260206000209060060201600091509050806000018054600181600116156101000203166002900480601f016020809104026020016040519081016040528092919081815260200182805460018160011615610100020316600290048015610f865780601f10610f5b57610100808354040283529160200191610f86565b820191906000526020600020905b815481529060010190602001808311610f6957829003601f168201915b5050505050908060010160009054906101000a900473ffffffffffffffffffffffffffffffffffffffff16908060020160009054906101000a900473ffffffffffffffffffffffffffffffffffffffff16908060030154908060040154908060050154905086565b60008060036000846000191660001916815260200190815260200160002090508060040154915050919050565b60008060003373ffffffffffffffffffffffffffffffffffffffff168473ffffffffffffffffffffffffffffffffffffffff161415151561105b57600080fd5b84846040518083805190602001908083835b602083101515611092578051825260208201915060208101905060208303925061106d565b6001836020036101000a0380198251168184511680821785525050505050509050018273ffffffffffffffffffffffffffffffffffffffff1673ffffffffffffffffffffffffffffffffffffffff166c0100000000000000000000000002815260140192505050604051809103902091506003600083600019166000191681526020019081526020016000209050338160020160006101000a81548173ffffffffffffffffffffffffffffffffffffffff021916908373ffffffffffffffffffffffffffffffffffffffff1602179055508481600001908051906020019061117b9291906113bd565b50838160010160006101000a81548173ffffffffffffffffffffffffffffffffffffffff021916908373ffffffffffffffffffffffffffffffffffffffff1602179055506000816003018190555060008160040181905550818160050181600019169055506000819080600181540180825580915050906001820390600052602060002090600602016000909192909190915060008201816000019080546001816001161561010002031660029004611235929190611336565b506001820160009054906101000a900473ffffffffffffffffffffffffffffffffffffffff168160010160006101000a81548173ffffffffffffffffffffffffffffffffffffffff021916908373ffffffffffffffffffffffffffffffffffffffff1602179055506002820160009054906101000a900473ffffffffffffffffffffffffffffffffffffffff168160020160006101000a81548173ffffffffffffffffffffffffffffffffffffffff021916908373ffffffffffffffffffffffffffffffffffffffff160217905550600382015481600301556004820154816004015560058201548160050190600019169055505050819250505092915050565b828054600181600116156101000203166002900490600052602060002090601f016020900481019282601f1061136f57805485556113ac565b828001600101855582156113ac57600052602060002091601f016020900482015b828111156113ab578254825591600101919060010190611390565b5b5090506113b9919061143d565b5090565b828054600181600116156101000203166002900490600052602060002090601f016020900481019282601f106113fe57805160ff191683800117855561142c565b8280016001018555821561142c579182015b8281111561142b578251825591602001919060010190611410565b5b509050611439919061143d565b5090565b61145f91905b8082111561145b576000816000905550600101611443565b5090565b905600a165627a7a72305820cfd56a1bb19c1ee6e8f10d5fe1f31c03f2db3103a3f324d3849a186a63996c0b0029",
  "source": "pragma solidity ^0.4.7;\ncontract Tutoria {\n\n    struct tutoriaData{\n        string materia;\n        address idProfesor;\n        address alumno;\n        uint confirmado;\n        uint cancelado;\n        bytes32 hash;\n\n\n    }\n    tutoriaData[] public tuto;\n    tutoriaData[] public tutoConf;\n    tutoriaData[] public tutoCanc;\n\n    mapping (bytes32 => tutoriaData) tutorias;\n\n\n    function solicitar (string _materia, address _idProfesor) public returns(bytes32){\n        require(_idProfesor != msg.sender);\n        bytes32 hashAux = keccak256(_materia, _idProfesor);\n        tutoriaData t = tutorias[hashAux];\n        t.alumno = msg.sender;\n        t.materia = _materia;\n        t.idProfesor = _idProfesor;\n        t.confirmado = 0;\n        t.cancelado = 0;\n        t.hash = hashAux;\n        tuto.push(t);\n        return hashAux;\n    }\n\n\n    function getMateria(bytes32 key) public view returns (string) {\n        tutoriaData t = tutorias[key];\n        return t.materia;\n    }\n\n    function getIdProfesor(bytes32 key) public view returns (address) {\n        tutoriaData t = tutorias[key];\n        return t.idProfesor;\n    }\n\n    function getAlumno(bytes32 key) public view returns (address) {\n        tutoriaData t = tutorias[key];\n        return t.alumno;\n    }\n\n    function confirmar(bytes32 key) public{\n        tutoriaData t = tutorias[key];\n        require(msg.sender == t.idProfesor);\n        t.confirmado = 1;\n        tutoConf.push(t);\n    }\n\n    function cancelar(bytes32 key) public{\n        tutoriaData t = tutorias[key];\n        require(msg.sender == t.alumno);\n        t.cancelado = 1;\n        tutoCanc.push(t);\n    }\n\n    function estaConfirmado(bytes32 key) public view returns (uint) {\n        tutoriaData t = tutorias[key];\n        return t.confirmado;\n    }\n\n    function estaCancelado(bytes32 key) public view returns (uint){\n        tutoriaData t = tutorias[key];\n        return t.cancelado;\n    }\n\n}\n",
  "sourcePath": "D:\\paradigmas3\\Tutoria-Smartcontract\\Tutoria-SmartContract\\contratos\\contracts\\tutoria.sol",
  "compiler": {
    "name": "solc",
    "version": "0.4.24+commit.e67f0147.Emscripten.clang"
  },
  "schemaVersion": "2.0.1",
  "updatedAt": "2018-10-17T21:51:01.324Z"
}